:020000040800F2
:10000000280700208D0100089501000897010008CD
:10001000990100089B0100089D01000800000000F4
:100020000000000000000000000000009F01000828
:10003000A101000800000000A3010008A5010008BC
:10004000A7010008A7010008A7010008A7010008F0
:10005000A7010008A7010008A7010008A7010008E0
:10006000A701000861110008A7010008A701000806
:10007000A7010008A7010008A7010008A7010008C0
:10008000A7010008A7010008A7010008A7010008B0
:10009000A7010008A7010008A7010008A7010008A0
:1000A000A7010008A7010008A7010008A701000890
:1000B000A70100083D1300080D200008D70800081C
:1000C0000B0A0008A7010008A70100084F07000855
:1000D00049070008A7010008170C0008A70100083D
:1000E0009D1F0008A7010008A701000800F002F802
:1000F00000F03CF80AA090E8000C82448344AAF186
:100100000107DA4501D100F031F8AFF2090EBAE883
:100110000F0013F0010F18BFFB1A43F0010318473B
:10012000C82F0000E82F0000103A24BF78C878C11B
:10013000FAD8520724BF30C830C144BF04680C60ED
:10014000704700000023002400250026103A28BF35
:1001500078C1FBD8520728BF30C148BF0B60704739
:100160001FB502F0FAFC1FBD10B510BD02F019F961
:100170001146FFF7F5FF02F083F802F037F903B4F8
:10018000FFF7F2FF03BC02F041F900000948804785
:1001900009480047FEE7FEE7FEE7FEE7FEE7FEE769
:1001A000FEE7FEE7FEE7FEE704480549054A064B81
:1001B0007047000095020008ED00000828010020AB
:1001C0002807002028030020280300200021002009
:1001D000674A126842F48032654B1A6000BF644A75
:1001E000126802F40030491C10B9B1F5A06FF6D1C5
:1001F0005F4A126812F4003F01D0012000E00020A5
:10020000012842D15B4A126842F01002594B1A6031
:100210001A46126822F003021A601A46126842F067
:1002200002021A60524A5268514B5A601A4652688A
:100230005A601A46526842F480625A601A465268FE
:1002400022F47C125A601A46526842F4E8125A604C
:100250001A46126842F080721A6000BF444A12685F
:1002600012F0007FFAD0424A526822F00302404B5B
:100270005A601A46526842F002025A6000BF3C4A75
:10028000526802F00C02082AF9D1704710B5FFF746
:100290009DFF10BD10B53648006840F0010034499C
:1002A00008600846406834490840314948600846BB
:1002B0000068324908402E4908600846006820F46A
:1002C000802008600846406820F4FE0048604FF433
:1002D0001F008860FFF7DAFF4FF0006028490860D0
:1002E00010BD10B5002100200022214B5B6803F0F7
:1002F0000C0121B1042906D0082928D107E0214B9F
:10030000214C236027E01F4B1F4C236023E0184B38
:100310005B6803F47010164B5B6803F480320223B1
:1003200003EB904022B9194B4343174C23600DE077
:100330000F4B5B6813F4003F04D0144B4343124C43
:10034000236003E00F4B43430F4C236003E00D4B4E
:100350000D4C236000BF00BF054B5B68C3F3031364
:100360000B4CE15C084B1B68CB40074C236010BD75
:1003700000100240002002400000FFF8FFFFF6FEE0
:1003800008ED00E000127A000000002000093D00A6
:100390000400002068486949C86141F21D20886155
:1003A000012048610003C8600020C8604FF480400D
:1003B0000861002008614FF0806061494860614831
:1003C0006149086061485E49C1F8040860486149B4
:1003D0000860614801F1040108604FF000005F49C6
:1003E00008605648806940F4804054498861544808
:1003F000D0F8040820F47F605149C1F80408084689
:10040000D0F8040840F49660554908604FF00100A8
:1004100054490860704700B9704700EBC00189007B
:100420004FF0E0225161002191611146096941F0CC
:100430000501116100BF4FF0E021096911F4803F0F
:10044000F9D04FF0E021096921F001014FF0E022DD
:10045000116100BFE0E710B5044604B910BD0020EB
:100460004FF0E02188610846006940F0050008610E
:100470000CE03D484FF0E021486101E001F02CFE26
:100480004FF0E020006910F4803FF7D02000A4F185
:100490000104EED14FF0E020006920F001004FF0A0
:1004A000E021086100BFD9E710B5044603E04FF42E
:1004B0007A70FFF7D0FF2000A4F10104F7D110BD3E
:1004C00010B5044601E001F007FE002CFBD110BD81
:1004D00010B503460C460CE02448006808B901201A
:1004E00000E00020214908602046FFF794FF581ED5
:1004F00083B2002BF0DC01201C49086010BD6FF0B6
:100500007F404FF0E0214861002088610846006983
:1005100040F00500086170474FF0E021096921F0C3
:1005200001014FF0E0221161114649699269891A6F
:100530000D4AB1FBF2F07047074022000010024064
:10054000000001400B4BB3B30008014003003037FB
:10055000004033FF000C0140BB74B7BB00100140EA
:1005600004080140BC01214240190100B8012142A8
:1005700005210902314A10684FF6FF0200EA020025
:100580002F4A40EA020040EA01004FF0E022C2F8A0
:100590000C0D7047F0B50C4615460346C71700EB27
:1005A0009777C7F38706C71700EB9777BF10A0EBC5
:1005B0008707FAB2042303EBC203DAB2A10005F005
:1005C0000303194301F00F0100BF00F01F070123CF
:1005D000BB4047094FF0E02C0CEB8707C7F8003110
:1005E00000BF184B9B5D01FA02F73B43DFB2154B8E
:1005F0009F55F0BD144A0A400243144B1A607047DD
:1006000000B500214FF00060FFF7F4FFFFF7B0FFE7
:10061000032201212620FFF7BDFF012211461F20E2
:10062000FFF7B8FF012200212020FFF7B3FF0122CE
:1006300011462820FFF7AEFF00BD00000CED00E0E2
:100640000000FA0500E400E080FFFF1F08ED00E075
:100650003F48006840F0E0003E49C1F80C0840F215
:1006600007303D4908800846808840F002008880B5
:100670000846008840F0400008807047374800680E
:1006800010F4007F01D1012070473348008910F039
:10069000020F01D10120F7E72F48008900F0800008
:1006A000012800D1F0E70020EEE72B49098821F46A
:1006B0000061294A11804FF47061284A5160114647
:1006C000486300BF2449098911F0020FFAD0234979
:1006D000096B41F00101214A1163704710B50446CE
:1006E0005CB900211D48303000F054FB1A480088E6
:1006F00020F40060184908800AE0012117483030D2
:1007000000F048FB1448008840F40060124908805B
:1007100010BD70B504460D462A4621460F483030BC
:1007200000F035FB70BD00BF0B49098911F0800F47
:10073000FAD10949888100BF0749098911F0010FE1
:10074000FAD0054989897047054800887047704785
:100750000C08014000000140003001400000024050
:100760000838004001460820C64A914207D94FF494
:10077000967242434FF47A7392FBF3F290B2421CAA
:1007800090B2704701460420BE4A914208D84A0000
:10079000BD4BB3FBF2F290B204280EDA04200CE059
:1007A00001EB4102B84BB3FBF2F290B20205120D1D
:1007B00001D140F0010040F40040704700B54FF413
:1007C000E160B249088001F10400008801F10401F0
:1007D00008804FF00000AE49A1F80C0449F64040F3
:1007E000FFF7D0FFAA49A1F81C0449F64040FFF7E3
:1007F000B9FFA849088040F20140A749088000BD20
:100800000120A6490870A448008840F48070A049DF
:10081000A1F80004704710B509240DE00020A0499C
:1008200008604FF00500FFF7F6FD01209D49C1F873
:1008300098010520FFF7EFFD2000A4F10101CCB2E3
:10084000ECD1FFF7DDFF10BD9348008840F4007045
:100850008F49A1F80004704700BF90480078002835
:10086000FBD170478C48008820F001008849A1F82E
:10087000000470478848008840F480608449A1F8EB
:10088000000470478448008820F480608049A1F803
:100890000004704770B504460D4600208249086187
:1008A0000846447085700220C860FFF7B4FFFFF768
:1008B000D3FF70BD10B5044601207B49086108468E
:1008C00044700120C8604861FFF7A5FFFFF7C4FF2F
:1008D0007548407810BD00B57448008810F0010FCD
:1008E00007D0714800787249098808437149088027
:1008F0008AE06E48008810F0020F21D000206E4977
:1009000008606E480088FFF7B5FF6948008870B935
:100910006548C068F0B3684801680068401C664AD2
:1009200010606148401C405C624908806CE05E4891
:100930004069012868D1FFF7A5FFFFF785FF63E055
:100940005A48008810F0400F2FD0574840690128BE
:1009500003D10020564908800DE053484069801EAD
:1009600055490968884206D1FFF78CFFFFF76CFFF5
:1009700000204F4908804F480088C1B24E480268A5
:10098000006800F101004C4B1860474800F101007D
:10099000815400E008E044484069194609688842EB
:1009A00032D100203D4908702EE04048008810F008
:1009B000800F29D03C48C0683F490968884217D950
:1009C0003948006940B93848C068401E3A4909684A
:1009D000884201D1FFF738FF374801680068401CA2
:1009E000354A10603048401C405C324908800BE0BA
:1009F0002D480069012804D12D490880FFF700FF28
:100A000002E000202549087000BD2848008810F445
:100A1000806F06D02548008820F480601C49A1F82A
:100A200014042248008810F4804F06D01F48008824
:100A300020F480401649A1F814041C48008810F4E2
:100A4000006F06D01948008820F400601049A1F812
:100A500014041648008810F4007F06D0134800885C
:100A600020F400700A49A1F814041048008810F41A
:100A7000807F06D00D48008820F480700449A1F8DA
:100A800014047047A086010000127A00045400404C
:100A9000005000402054004000540040140000204A
:100AA00098812142008021426C00002014540040B3
:100AB0001C00002010540040180000201854004072
:100AC0002DE9F84F804689464FEA0810B9FBF0F649
:100AD0004FEA081001F066FF0446484601F062FF45
:100AE0000546214601F07CFE8246304601F05AFF61
:100AF0000446514602F03DF882464FF0834150468D
:100B000001F064FF8246504601F02CFF074638464C
:100B100001F048FF5146009002F02BF8834601F0A7
:100B2000D1FD04460022714B01F096FD01D8012051
:100B300000E000200744102F01D10027761C360169
:100B40003E433046BDE8F88F10B569494FF4165062
:100B5000FFF7B6FF674908804FF008004FF04021CB
:100B6000A1F8180442F22C00634908804FF00000FD
:100B700001F10401088001F1040108805F494FF48C
:100B80001650FFF79DFF5E4908804FF008005D4951
:100B9000088042F22C005C49A1F80C0810BD0FB48B
:100BA00008B503A800902FE002980078252824D1EA
:100BB0000298401C02900078252819D0632804D0A0
:100BC00064280FD0732817D106E0009904C9D0B269
:100BD000009101F058FC0FE0009901C9009101F06B
:100BE0005BFC09E0009901C9009101F062FC03E09F
:100BF000252001F048FC00BF03E00299087801F0CD
:100C000042FC0298401C0290029800780028CBD148
:100C100001B05DF814FB3D48007838B33C480088CB
:100C200010F0200F60D03B48007800BB3A480088A5
:100C30003A493B4A1278895C884205D138480078A5
:100C4000401C3749087002E00020354908703348DD
:100C500033490978405C48B901202E4908700020CA
:100C6000304908702E4908702F4908703CE0294827
:100C70000078012838D1284800882C49294A127860
:100C80008854284800780E2820D1244880782649A6
:100C900009780844244908702048C0780978084435
:100CA0002149087000201B4908702048807B1E499C
:100CB000097888420AD10020144908700E4800883B
:100CC00020F400504FF04021A1F80C0417481549BA
:100CD0000978405C144909780844134908701148A0
:100CE0000078401C0F490870704700000000E03F8A
:100CF00000512502084400400C44004000A24A0470
:100D00000838014018380140003001401E00002022
:100D1000004400402200002004440040722C0008DF
:100D2000200000201F00002021000020840000205F
:100D30008A688260CA68C2600A6A426000220260F1
:100D40000A79002343EA02120B7C42EA43124B7CED
:100D500042EA83128B7C42EAC3124B6942EA0322C5
:100D60008B6942EA83220B68C3F1030342EA033230
:100D70000B7F42EA430202607047026822F00102E0
:100D800002604160026842F0010202607047C16087
:100D900042607047026822F440720260026822F4E6
:100DA00040620260026842EA01220260026842EA8E
:100DB00081220260704700B589B0012000900020B8
:100DC0008DF804001B4802901B48039000208DF80A
:100DD000110001208DF81200059006900620089061
:100DE00000208DF81C0001208DF810006946134882
:100DF000FFF79EFF06211148FFF7BFFF012000907B
:100E00008DF804000E480290002003908DF8110028
:100E100001208DF8120000200590069008908DF8B2
:100E20001C008DF81000694604482830FFF780FF49
:100E300009B000BD4C2401406000002008000240C1
:100E40000C30014000205C4908605C49C1F8900109
:100E50004FF4FA605A4908804FF000004FF080418B
:100E6000A1F828085748008846F2600140EA0100CE
:100E70004FF08041A1F81C080846B0F8200840F463
:100E80008850A1F820080846B0F8000840F081001A
:100E90004D4908804FF000004C4908804FF08041D8
:100EA000A1F8400870474A4909880144474A11801F
:100EB0007047484909880144474A1180704710B576
:100EC00002461046002916DD0844B0F5FA6F06DD2B
:100ED0004FF4FA63404C2380A0F5FA6003E03E4CE7
:100EE00020804FF00000531A181A002800DA002062
:100EF000364C208015E0401AB0F5FA6F06DD4FF44D
:100F0000FA63324C2380A0F5FA6003E02F4C208076
:100F10004FF000005318181A002800DA00202E4C59
:100F2000208010BD2D490978884200D170472B4997
:100F3000087060B92A49098821F400714FF0804295
:100F4000A2F820184FF000011B4A11600CE0244960
:100F5000098841F400714FF08042A2F820184FF048
:100F60000101154A116000BF00BF00BFDEE71D4947
:100F70000978884200D170471A49087060B9184949
:100F8000098821F400514FF08042A2F820184FF058
:100F90000001154A11600CE01149098841F4005123
:100FA0004FF08042A2F820184FF001010E4A116064
:100FB00000BF00BF00BFDEE79481214200802142D4
:100FC0002C0800401C080040000800403C0800407D
:100FD00024000020260000204008004028000020B7
:100FE0002008004029000020908121420A2805DACB
:100FF00030220A7000F130024A700BE00A2290FBA6
:10100000F2F230320A700A2290FBF2F302FB130272
:1010100030324A70704710B50446D0202849087015
:101020000120C8604861086108464470FFF7F3FB7F
:10103000FFF712FC2249487801F0F0F910BD70B5B5
:1010400004460D46D0201E4908700220C8600020CA
:10105000086108464470284601F0EBF91849887089
:10106000FFF7D9FBFFF7F8FB70BD38B500208DF80E
:10107000020008210120FFF7E2FF0220FFF7CBFF6B
:1010800004466946FFF7B2FF69460EA0FFF787FDE9
:101090000120FFF7C0FF04466946FFF7A7FF694636
:1010A00008A0FFF77CFD0020FFF7B5FF0446694666
:1010B000FFF79CFF694604A0FFF771FD38BD0000F3
:1010C0006C00002025733A0025730D0A0000000013
:1010D00010B5AAA001F048F8AB48806840F48050F1
:1010E000A9498860A948006840F00800C1F80004D8
:1010F0000846D0F8040440F00800C1F8040408468B
:10110000D0F80C0440F00800C1F80C044FF0804007
:10111000B0F80C0440F001009D4908804FF0000039
:101120009C49088044F24F6001F1040108804FF0AF
:1011300001004FF08041A1F82C044FF08040B0F83E
:10114000000440F09000A1F800040846B0F8100434
:1011500020F001009049088090A001F005F810BD32
:1011600010B58F480078F0BB8E48008820F0010051
:101170004FF08041A1F800048B480078D8B18B482B
:1011800000788B498B4A127888548A4800781F2847
:101190000BD10120FFF73FF90120814908700020A1
:1011A000854908708049087022E082480078401C18
:1011B000804908701CE07D4800781A2803D07B48DD
:1011C00000781B2805D100207A4908700120764953
:1011D000087076480078162803D0744800781728DD
:1011E00006D1012000E011E0734908706C490870D5
:1011F00000206E4908706A48007838B9694800884C
:1012000040F001004FF08041A1F800046B480068F5
:1012100040F008005C49C1F8140410BD2DE9F84302
:101220005F48007888B34FF000086348007858BBE7
:10123000002417E001250EE04046411C01F0FF08A4
:101240005B490F5C032F01DD46F08006082D00DAB4
:101250007610681CC5B2082DEEDD0DF8046000267E
:10126000601CC4B2042CE5DB9DF80300C043C0B28F
:101270008DF803009DF802009DF80310884205D107
:101280009DF802004E49087003E055E000204C49EB
:1012900008704B48007840283ED015DC15283ED019
:1012A00009DCA0F1070007283FD2DFE800F0392C65
:1012B0003A3E3E223C00162834D0182821D0192866
:1012C0002BD01C2831D11FE04A2821D008DCA0F106
:1012D0004200062829D2DFE800F019211E1C281D33
:1012E000522814D05A2810D05E280BD0FF281CD1C9
:1012F0001AE03148007818B9C8210846FFF7E8F825
:1013000014E013E012E011E010E00FE00EE00DE059
:101310000CE00BE00AE009E008E007E006E005E089
:1013200004E003E002E001E000E000BF00BF0020B5
:101330001B49087020490870BDE8F88316480088EA
:1013400020F001004FF08041A1F810041748007808
:101350001B280BDD0020144908701248008820F07B
:1013600001004FF08041A1F8000470470F48007859
:10137000401C0E49087000BFF7E700000A495231CF
:101380003833382E2E2E00000000014000040140AA
:101390000C04004024040040100400404F4B210086
:1013A0002B000020000400402D0000202C00002015
:1013B000930000202E0000202A0000201404014089
:1013C0002F00002070B5044604B970BD4FF0804076
:1013D000808D26490988401AA0EB44004FF08041D7
:1013E00088860846008840F0010008802048008870
:1013F000A04205DD1E480088001BC004050C04E067
:101400001B480088201AC004050C1948048028468F
:10141000FFF721F84FF08040008820F001004FF0E6
:101420008041088000BFD0E710B512A000F09CFEFC
:101430004FF47A604106888540F2671008850846B7
:10144000008B40F0600008830846008C40F00300E9
:1014500008840846008840F0900008805020FFF77C
:10146000B1FF07A000F080FE10BD0000300000209A
:10147000320000200A534739302E2E2E0000000083
:101480004F4B210010B501201C4908604FF014009B
:10149000FEF7C1FF1A484FF0E02148610020886143
:1014A0001849C1F8AC0100BF174800680028FBD0FC
:1014B0004FF0E020006940F005004FF0E0210861A6
:1014C00000BF1148006828B14FF0E020006910F417
:1014D000803FF6D000BF0C4800680028FBD14FF0D9
:1014E000E020006920F001004FF0E021086108468B
:1014F00040698969A0EB010080B210BDAC81214236
:10150000A0F10400008021422881214270B50546E7
:101510000C46F94804602846FFF705F970BD70B520
:1015200004460D46F44805604FEA2420FFF7FBF817
:10153000E0B2FFF7F8F870BD2DE9F04107460C4620
:1015400015461E4600212A20FFF7E0FF01213846FC
:10155000FFF7E5FF01212846FFF7E1FF00212B20DF
:10156000FFF7D4FF01212046FFF7D9FF01213046C4
:10157000FFF7D5FF00212C20FFF7C8FFBDE8F08161
:1015800010B50120DD4908604FF00000DC49C1F8CA
:1015900098014FF01E00FEF75EFF0120D949086058
:1015A0004FF01E00FEF757FF0020D749C1F8B001E9
:1015B00000211120FFF7AAFF7820FEF74CFF002141
:1015C000B120FFF7A3FF01210520FFF79FFF0121B5
:1015D0003C20FFF79BFF01213C20FFF797FF0021F4
:1015E000B220FFF793FF01210520FFF78FFF0121B4
:1015F0003C20FFF78BFF01213C20FFF787FF0021F4
:10160000B320FFF783FF01210520FFF77FFF0121B2
:101610003C20FFF77BFF01213C20FFF777FF0121F2
:101620000520FFF773FF01213C20FFF76FFF012129
:101630003C20FFF76BFF0021B420FFF767FF01217B
:101640000320FFF763FF0021C020FFF75FFF0121A8
:101650002820FFF75BFF01210820FFF757FF01213A
:101660000420FFF753FF0021C120FFF74FFF0121A6
:10167000C020FFF74BFF0021C220FFF747FF0121E9
:101680000D20FFF743FF01210020FFF73FFF00215E
:10169000C320FFF73BFF01218D20FFF737FF01211A
:1016A0002A20FFF733FF0021C420FFF72FFF01217D
:1016B0008D20FFF72BFF0121EE20FFF727FF0021F0
:1016C000C520FFF723FF01211A20FFF71FFF00218C
:1016D0003620FFF71BFF0121C020FFF717FF002175
:1016E000E020FFF713FF01210420FFF70FFF012186
:1016F0002220FFF70BFF01210720FFF707FF012141
:101700000A20FFF703FF01212E20FFF7FFFE012132
:101710003020FFF7FBFE01212520FFF7F7FE012116
:101720002A20FFF7F3FE01212820FFF7EFFE012119
:101730002620FFF7EBFE01212E20FFF7E7FE012117
:101740003A20FFF7E3FE01210020FFF7DFFE012131
:101750000846FFF7DBFE01210320FFF7D7FE01213A
:101760001320FFF7D3FE0021E120FFF7CFFE012178
:101770000420FFF7CBFE01211620FFF7C7FE012151
:101780000620FFF7C3FE01210D20FFF7BFFE012158
:101790002D20FFF7BBFE01212620FFF7B7FE012118
:1017A0002320FFF7B3FE01212720FFF7AFFE012121
:1017B0002720FFF7ABFE01212520FFF7A7FE01211F
:1017C0002D20FFF7A3FE01213B20FFF79FFE012103
:1017D0000020FFF79BFE01210846FFF797FE01213D
:1017E0000420FFF793FE01211320FFF78FFE002155
:1017F0003A20FFF78BFE01210520FFF787FE00212D
:101800002920FFF783FE10BD70B59F237F220021A2
:101810000846FFF791FE00240CE0002506E00121B8
:101820003A480088FFF77BFE681C85B2802DF6DB06
:10183000601C84B2A02CF0DB70BD70B504460D4670
:101840002B46224629462046FFF776FE01213048E6
:101850000088FFF764FE70BD2E4A108001222E4BD7
:101860001A702E4A1170704700202B4908702B49BE
:10187000087070472DE9F04F87B005460E461746B1
:101880009846BD421DD1464503DDCDF80480B046E3
:10189000019E43462A4631462846FFF74DFE701EFC
:1018A000A8EB00001FFA80F8444605E00121184823
:1018B0000088FFF734FE641E002CF7DC07B0BDE89B
:1018C000F08F46452CD1BD4202DD01972F46019D88
:1018D00033463A4631462846FFF72EFE681E381A30
:1018E00087B23C4605E0012109480088FFF717FE52
:1018F000641E002CF7DCE1E790012142B081214217
:101900000000214298012142008021423A0000203B
:101910003C0000203E00002038000020390000205C
:10192000AF4205DDA7EB050BA9460120069005E0B7
:10193000A5EB070BB9464FF0FF300690B04506DD2A
:10194000A8EB06000490B2460120059006E0A6EB45
:1019500008000490C2464FF0FF300590049883457C
:101960001FDD04989BFBF0F0029000200390002400
:1019700014E009F10109DDE90210884203DA039855
:10198000401C039003E000200390059882441FFA56
:101990008AF11FFA89F0FFF750FF641C5C45E8DB11
:1019A0001FE0049890FBFBF00290002003900024BD
:1019B00014E00AF1010ADDE90210884203DA039813
:1019C000401C039003E000200390069881441FFA16
:1019D0008AF11FFA89F0FFF730FF641C04988442F3
:1019E000E7DB00BF6AE7354A1080354A118070474F
:1019F00070B505460C4623462A46314801882F48D3
:101A00000088FFF737FF2D4805802D48048070BD02
:101A10002DE9F04706460F4614461D462748068026
:101A200027480780601E84B2681E85B2254800786A
:101A3000D8B9781981B23046FFF7DAFF7A1991B236
:101A4000321990B2FFF7D4FF311988B23946FFF747
:101A5000CFFF39463046FFF7CBFF701C86B2781CAB
:101A600087B2601E84B2681E85B21748007810B332
:101A70007819401E83B23019401E82B23946304672
:101A8000FFF75AFD05F0FF0812E004F0FF0908E037
:101A900001210E480088FFF742FDA9F1010000F086
:101AA000FF09B9F1000FF3DCA8F1010000F0FF0815
:101AB000B8F1000FE9DCBDE8F08700003400002039
:101AC0003600002039000020380000203E000020B1
:101AD0008178C268127991FBF2F10171C178C26814
:101AE000527991FBF2F141717047CC49086070471F
:101AF00010B5CA49096848890121FFF7ADFEC74CF6
:101B00002468E378C54C2468A278C44C24686178C2
:101B1000C24C24682078FFF77BFFFFF7A5FE00206A
:101B2000BE4909688871BD490968C87110BD2DE9B1
:101B3000F0470646B94800680078B84909688979CD
:101B4000B64A1268D268127901FB020000F0FF0861
:101B5000B24800684078B1490968C979AF4A12684B
:101B6000D268527901FB020000F0FF09AB4800681F
:101B7000C06840794844401E83B2A8480068C068E5
:101B800000794044401E82B249464046FFF7D4FCEB
:101B900000241DE0375D002512E0802028413842F6
:101BA00004D09E480068B0F808A003E09B48006895
:101BB000B0F80AA001215046FFF7B1FC681CC5B27D
:101BC00096480068C0680079A842E6DC601CC4B290
:101BD00092480068C0684079A042DBDC8F4800680A
:101BE00081798E4800680079401E81420BD1002027
:101BF0008A490968887189480068C079401C87490A
:101C00000968C87106E0854800688079401C8349EE
:101C10000968887181480068C079804909684979F4
:101C2000884203D100207D490968C871BDE8F0876A
:101C300070B504460A2C3CD178480068C1797748D1
:101C400000684079401E814220D17448006885793F
:101C500004E02020FFF7ECFF681CC5B26F48006865
:101C60000079A842F5DC00206C490968C8716B480E
:101C700000680089C04369490968088167480068AD
:101C80004089C0436549096848810DE063480068A0
:101C9000857904E02020FFF7CBFF681CC5B25F48C0
:101CA00000680079A842F5DC00205C490968887169
:101CB00070BD7F2C3BDD5A48008878BB58480480B3
:101CC00000880006000C5649088054480068817955
:101CD000524800680079801E814269D100204F4936
:101CE000096888714D480068C1794C48006840799E
:101CF000401E814213D1002048490968C8714748F5
:101D000000680089C0434549096808814348006864
:101D10004089C04341490968488149E007E03F489C
:101D20000068C079401C3D490968C87140E03C48E2
:101D3000008828B33A48008820433949088008467B
:101D4000008800F009FB3649088034480068C06804
:101D50004079098848433249088030490968C96890
:101D600009682F4A12888818FFF7E1FE2B4800689F
:101D7000C06840792A4909880844294908800BE04D
:101D800026480068C0688079201A24490968C96813
:101D9000497948432249088020490968C968096887
:101DA0001F4A12888818FFF7C2FE00201C490880CD
:101DB00000BF7DE710B5044603E014F8010BFFF700
:101DC00037FF20780028F8D110BD3EB50446002525
:101DD000002C04DAE443641C2D20FFF729FF00BF28
:101DE0000A2094FBF0F100FB1140C2B22846691CA6
:101DF000CDB20DF800200A2094FBF0F00400EFD1E2
:101E000005E01DF805103031C8B2FFF711FF2800BA
:101E1000A5F10101CDB2F4D13EBD00004400002087
:101E20004000002010B526A000F09EF93C20274974
:101E30000870022048700021244881700220234944
:101E4000C86000200861FEF7E6FCFEF705FD0120F2
:101E50001E494870E0211D488170FEF7DCFCFEF74A
:101E6000FBFC1BA000F080F910BD10B504463C201F
:101E700016490870032048700120C8600620486198
:101E800001200861FEF7C7FCFEF7E6FC0F488078EA
:101E90000E49497840EA012020800C480179C07839
:101EA00041EA0020608009488179407941EA0020B8
:101EB000A080A3886288218806A000F055F910BD93
:101EC0000A484D43353838332E2E2E006C00002042
:101ED0004F4B2100783D25642C793D25642C7A3DBB
:101EE00025640A0010B518A000F03EF9D020194969
:101EF000087000216B20FEF7CDFC07211920FEF7AA
:101F0000C9FC06211A20FEF7C5FC18211B20FEF78C
:101F1000C1FC01211C20FEF7BDFC0FA000F024F93C
:101F200010BD70B50446D0200A4908702046FEF75F
:101F3000C1FC0546601CC0B2FEF7BCFC064606EBC1
:101F4000052080B270BD00000A4D50553630353046
:101F50002E2E2E006C0000204F4B210010B521A02A
:101F600000F002F92248406940F48851204841615C
:101F70002048006840F440401D49C1F800041E4854
:101F80000068C1F804040846D0F80C0440F440404E
:101F9000C1F80C0419A000F0E7F810BD184800685B
:101FA00010F4004F0BD017480088401C15490880DA
:101FB0001348006840F400400D49C1F8140410486B
:101FC000006810F4804F0BD00F480088401C0E4969
:101FD00008800B48006840F480400549C1F81404AB
:101FE000704700000A464330332E2E2E00000000BA
:101FF0000000014000040140040401404F4B210057
:10200000140401404A00002048000020704710B529
:1020100004462348008823490988884200D110BD1E
:102020001F4800881F490988884205DD1E4800882E
:10203000401E1D49088004E01B480088401C1A49C6
:1020400008801A480088FEF72EFF17480088FEF720
:1020500030FF17A000F020FA1248008800F029FA9B
:1020600015A000F019FA0E48008800F022FA14A01A
:1020700000F012FA0D48008800F01BFA12A000F0E0
:102080000BFA0948008800F014FA11A000F004FAD5
:102090000020044908800249088000BFBFE7000013
:1020A0004A000020480000204E0000204C00002084
:1020B000544D4C533D00000020544D52533D000000
:1020C000206C733D000000002072733D0000000092
:1020D0000A00000070477047704700002DE9F04784
:1020E00000274FF6FF78002140F22620FEF7E7FE9A
:1020F0000025012617E03046FFF764F9FFF7C2F923
:10210000044621460BA000F02FF8BC4201DD274613
:10211000A946444501DAA046AA4600BF06F10A00D6
:1021200086B2681CC5B2102DE5DB5020FFF74AF9D6
:10213000BDE8F08725640A0010B5002047494881B2
:102140000870487081208870A120C8704FF6FF7019
:1021500008814348C8600846FFF7BAFC3F48FFF7CC
:10216000C4FCFFF7C5FC10BD0FB408B503A8009070
:102170002FE002980078252824D10298401C029074
:102180000078252819D0632804D064280FD073283C
:1021900017D106E0009904C9D0B20091FFF748FDBD
:1021A0000FE0009901C90091FFF704FE09E00099D2
:1021B00001C90091FFF709FE03E02520FFF738FD74
:1021C00000BF03E002990878FFF732FD0298401C37
:1021D0000290029800780028CBD101B05DF814FB82
:1021E00038B500208DF8020008210120FEF727FFF6
:1021F0000220FEF710FF04466946FEF7F7FE694627
:1022000018A0FFF7B1FF0120FEF705FF044669465D
:10221000FEF7ECFE694615A0FFF7A6FF0020FEF7CB
:10222000FAFE04466946FEF7E1FE694610A0FFF794
:102230009BFF38BD70B50420FEF7EDFE0446052077
:10224000FEF7E9FE05460620FEF7E5FE06462346B4
:102250002A46014607A0FFF787FF70BDB4000020A3
:10226000E03000082025733A0000000025733A0092
:1022700025730A002025642D25642D2564000000A7
:10228000FEF788F8FEF7BCF9FEF795FDFEF75CFC5B
:10229000FEF7DEF9FEF7D6FDFEF790FAFFF770F9CC
:1022A000FFF74AFF1EA0FFF75FFFFFF7BBFDFFF739
:1022B00019FEFEF70DFFFFF7B7F8FFF74FFE1BA063
:1022C000FFF752FF4FF496714FF42F70FEF700F9AD
:1022D0000A20FEF7C0F84FF496714FF42F70FEF706
:1022E000F7F815A0FFF740FF14A0FFF73DFFFFF739
:1022F000A1FFFFF775FF4FF44870FEF7D4FD4FF4D0
:102300004870FEF7D6FD0AE0FFF7E8FE11480068C6
:1023100008B9012000E000200E49086000BFF3E783
:10232000426F6F74696E672E2E2E0A000A23555372
:102330004152543D31000000000000000A0A2341D0
:102340006C706861206973206F6E6C696E65230A1A
:1023500000000000BC01214201464CF6C722881A49
:10236000914211D008DCA1F53640FE3810D0A0F51E
:102370000070B93810D10DE0A0F540702E3805D0AE
:10238000DD2809D1622070476420FCE76620FAE767
:102390006820F8E76A20F6E70020F4E77047704706
:1023A0007047754600F028F8AE460500694653466A
:1023B00020F00700854618B020B5FDF7F5FEBDE812
:1023C00020404FF000064FF000074FF000084FF09C
:1023D000000B21F00701AC46ACE8C009ACE8C0092D
:1023E000ACE8C009ACE8C0098D4670470446AFF3BD
:1023F00000802046FDF7C3FE00487047C80000205B
:1024000001487047704700BFCC00002001491820E8
:10241000ABBEFEE7260002007047000006B500F0E4
:102420000F014FEA10104FF00A0200FB02F00844BF
:1024300006BD06B54FF00A0100F005F84FEA00109E
:1024400040EA020006BD18B54FF000034FF020042B
:102450004FEA430310F0004F01D043F001034FEA6D
:1024600040005A1A02D340F001001346641EEFD117
:102470001A4618BD02B52649012801D1254800E0B9
:102480002548086002BD06B5214909680A6812F0AE
:10249000800FFBD0087106BD0EB51D4909680A689A
:1024A00012F0800FFBD010F8013B0B71002BF6D11E
:1024B0000EBD3EB54FF00A01184B4FF000044FF02F
:1024C000000510F0004F05D080F0FF3000F1010052
:1024D0004FF00105FFF7B7FF02F1300203F8012BBF
:1024E00004F101040028F5D1012D0949096805D13D
:1024F0004FF02D0203F8012B04F1010413F8010D34
:102500000A6812F0800FFBD00871641EF6D13EBD40
:1025100050000020003801400044004054000020DA
:10252000491058BFC1F140415B1058BFC3F140434F
:102530008B42EFF30080704751EA030C17D41CF56F
:10254000801F58BFBCF5801F00F10680994218BF5C
:10255000704708BF9042704707D711F5801F58BFDA
:1025600013F5801F19D499427047894270471CF5B2
:10257000801F08D5BCF5801FF7D58B4218BF704768
:1025800008BF824270474FF4001C1CEB410F38BF5C
:102590001CEB430F01D28B42704770B500F008F876
:1025A000922449004FF000514FF08053FFF7B8BF1D
:1025B0000EF1020E2EF0030E5EF8046B364205D4C7
:1025C000012A43EB030515F5001F12D8012841EB42
:1025D000010C1CF5001F0CD80ED14FEAD17C15F56B
:1025E000001F0CEB4C0C0CF1020C08BF4CEBD37C25
:1025F00004E04FF0080C01E04FEAD37C0CEB4C05F3
:1026000026FA05F606F00706B6F1040C06D20EEB24
:10261000860CBDE870404CF0010C6047DFE80CF020
:10262000090B02024FF000414FF00000A1F500211C
:1026300070BD19461046012851EB010418BFD4F5AE
:10264000001484BF002001F0004170BD0808A0F50F
:1026500000114FEA3101704753EA010C17D41CF501
:10266000801F58BFBCF5801F00F106808B4218BF49
:10267000704708BF8242704707D713F5801F58BFC5
:1026800011F5801F19D48B4270479B4270471CF58F
:10269000801F08D5BCF5801FF7D5994218BF704739
:1026A00008BF904270474FF4001C1CEB430F38BF2B
:1026B0001CEB410F01D2994270470FB40CBC03BC14
:1026C000FFF76BBF43004FEAD30C4FEA3C0C43408B
:1026D0001FBF40070CF1605113F0FE4F70471CF014
:1026E000006F03D100200CF0004170470CF0004354
:1026F00043EA507010B540EACC0000F0E8F900BFA2
:10270000000000924FEA0001FFF7A0BF4FF0004128
:102710004FF00000A1F500217047000090EA010F82
:1027200048BF81F0004100F13682421A3CBF801A56
:1027300089184FEAD0524FF07F4C1CEA410FA2EBB0
:10274000D15318BF9CEA026F00F03B804FF0004C61
:102750004CEA00204CEA012121FA03FC10EB0C0C9E
:102760001ED202F1FF325FEA1C2040EBC25038BF9C
:1027700070471CF07F0F4FEA400C18BFBCF17F4F31
:1027800038BF7047C3F12003994008BF20F0010013
:10279000BCF17F4F38BF7047A0F1C04000F0E4B9F2
:1027A0004FEA3C00000A40EBC25028BF1CF0FF0F6C
:1027B0004FEA400CE6D018BFBCF17F4F38BF7047DE
:1027C000EAE79CEA026F05D010EA5C0F08BF00F050
:1027D0000040704710B500F07AF900BF64FBBE3EC0
:1027E0004FF47F0C1CEAD0121EBF1CEAD11392EAF0
:1027F0000C0F93EA0C0F00F0858090EA010F48BFA0
:1028000042F4807240F4000C41F400002CF07F414F
:1028100020F07F4000B58142A2EB03020FF2081CBA
:10282000ACEB504EC0F100009EF800E04FEA4E0EB7
:1028300000FB0EFC38BF49004FEA2C1C02F5FA02DF
:102840000CFB0EF34FEACE1E4FEA112C4FEAC121CA
:102850000EEB635E42EB22420EFB0CFC4FEA1C5374
:1028600000FB03114FEA112C4FEA01310EFB0CFC67
:102870004FEADC4C00FB0C11C14228BF09184CEB9D
:1028800003335DF804EB10EB410143EBC250B2F5AA
:102890007C0F38BF704729D512F0F00F1CBF00F134
:1028A000C04000F0004070470081828384858687A5
:1028B00088898B8C8D8E8F919293959697999A9CFF
:1028C0009D9FA0A2A3A5A7A8AAACAEB0B2B3B5B76E
:1028D000B9BCBEC0C2C5C7C9CCCED1D4D7D9DCDF44
:1028E000E2E6E9ECF0F3F7FAFE0000004FEA400CF4
:1028F0000CF1807CBCF17E4F28BF7047B0F1C04026
:1029000000F032B990EA010F0CEAD11348BF42F44B
:102910008072624538BF634507D213F47F0F16D02B
:1029200080EA010000F00040704710B500F0CFF8D9
:10293000097EFC3E00F005B880EA010000F000408E
:10294000704780EA010000F0004000F00DB912F479
:102950007F0F04BF0248704780EA010000F004B90D
:102960000000C07FC10DD1F19E0206DB4FEA0023BB
:1029700043F0004323FA02F07047004207D54FEAC4
:102980004001B1F1FE4F02D24FF00000704710B588
:1029900000F09DF849922480002070476FEA2000E3
:1029A00070470000B0FA80F310FA03F2C3F19D0300
:1029B0000AD0D90501EB1220530638BF704700F149
:1029C000010008BF20F00100704700004FF47F0CA9
:1029D0001CEAD0121EBF1CEAD11392EA0C0F93EA34
:1029E0000C0F00F0478090EA010F48BF42F480725C
:1029F0004FF0004C4CEA00204CEA012102EB0302AC
:102A0000A0FB0113A2F50002002918BF43F0010347
:102A10005B0028BF4FEA330342EB22425FEA132CEC
:102A20004CEBC2502EBFBCEB436FB2F57C0F70472E
:102A30004FEA036CBCF1004F08BF20F00100B2F573
:102A40007C0F38BF70470BD582F0FF0212F5803F34
:102A5000C8BF704700F1C040D8BF00F000407047C9
:102A600000F5000C5FEA4C0C48BF7047B0F1C04065
:102A700000F07AB890EA010F0CEAD11348BF42F493
:102A80008072624538BF634504D280EA010000F0DD
:102A90000040704710B500F01AF800BF8900013EF1
:102AA00000F007B800F009B85FEA410C5FEA1C6C5F
:102AB00008D080EA010000F057B85FEA400C5FEAF6
:102AC0001C6CF6D14FF00040A0F5800070470EF16D
:102AD000020E2EF0030E5EF8044B244204D44FEA9B
:102AE0004102B2F17F4F11D84FEA4003B3F17F4F5B
:102AF0000CD80ED14FEAD07CB2F17F4F0CEB4C0CCE
:102B00000CF1020C08BF4CEBD17C04E04FF0080C38
:102B100001E04FEAD17C0CEB4C0324FA03F404F0FF
:102B20000704B4F1040C06D20EEB840CBDE810408F
:102B30004CF0010C6047DFE80CF0070802024FF090
:102B40000040A0F5800010BD0846420018BFD2F139
:102B5000807288BF00F0004010BD10B5FFF750FC38
:102B60004FF00001016010BDFF2141EAD050C005C7
:102B7000704780F0004090EA010F7FF5D6AD81F0FC
:102B8000004100F008B8000090EA010F48BF81F052
:102B900000413FF5CAAD421A04D882F00042A0EBD2
:102BA000020011444FEAD0524FF07F4C1CEA410F13
:102BB000A2EBD15318BF9CEA026F4AD04FF0004CF1
:102BC0004CEA00204CEA012121FA03FCB0EB0C0C8A
:102BD0000FD412F0FE0F36D05FEA4C001DD5001264
:102BE00040EBC25038BF70471CF03F0F18BF704712
:102BF0000BE0A2F101025FEA1C2040EBC25038BF9B
:102C000070471CF07F0F18BF7047C3F12003994035
:102C100014BF401E20F00100704780084FEA1223C5
:102C200008BF7047B0FA80FCA2EB0C02CCF1280C74
:102C300060FA0CF093EA122F04BF00EBC250704709
:102C40004FEAC3707047130A5FEADC1008BF704791
:102C5000F6E79CEA026F04D010EA5C0F08BF002080
:102C6000704710B5FFF733FF40DFF63E81F00040BC
:102C70007047A55A11F50000000000000000000098
:102C80000000000000002020202020200020000064
:102C9000002850500000000000000000000028281C
:102CA000FC2850FC50500000002078A8A06030287C
:102CB000A8F02000000048A8B05028345448000074
:102CC000000020505078A8A8906C00000040408080
:102CD0000000000000000000000408101010101098
:102CE00010080400004020101010101010204000A8
:102CF00000000020A87070A8200000000000202024
:102D000020F820202000000000000000000000004B
:102D1000004040800000000000F8000000000000BB
:102D2000000000000000000000400000000810103B
:102D300010202040404080000000708888888888EB
:102D400088700000000020602020202020700000FB
:102D5000000070888810204080F800000000708813
:102D6000083008088870000000001030505090783B
:102D7000101800000000F88080F00808887000003B
:102D80000000709080F08888887000000000F89043
:102D90001020202020200000000070888870888883
:102DA00088700000000070888888780848700000EB
:102DB00000000000200000000020000000000000D3
:102DC00000200000002020000004081020402010F7
:102DD0000804000000000000F80000F800000000F7
:102DE00000402010080408102040000000007088F7
:102DF00088102020002000000000708898A8A8B843
:102E000080780000000020203050507848CC00002E
:102E10000000F0484870484848F0000000007888FA
:102E200080808080887000000000F0484848484852
:102E300048F000000000F8485070504048F800008A
:102E40000000F8485070504040E000000000384852
:102E500080809C88483000000000CC484878484872
:102E600048CC00000000F8202020202020F800009E
:102E700000007C10101010101090E0000000EC48D2
:102E80005060505048EC00000000E040404040409E
:102E900044FC00000000D8D8D8D8A8A8A8A80000F2
:102EA0000000DC486868585848E800000000708856
:102EB00088888888887000000000F048487040408A
:102EC00040E0000000007088888888E8987018004A
:102ED0000000F0484870504848EC00000000788836
:102EE0008060100888F000000000F8A82020202052
:102EF000207000000000CC48484848484830000096
:102F00000000CC4848505030202000000000A8A805
:102F1000A8705050505000000000D8505020205051
:102F200050D800000000D850502020202070000011
:102F30000000F8901020204048F8000000382020C1
:102F40002020202020203800004040402020101069
:102F500010080000007010101010101010107000F9
:102F600000205000000000000000000000000000F1
:102F700000000000000000FC002000000000000035
:102F8000000000000000000000304838483C00000D
:102F90000000C04040704848487000000000000039
:102FA00000384840403800000000180808384848F9
:102FB000483C000000000000003048784038000025
:102FC00000001C2020782020207800000000000055
:102FD000003C4830407844380000C04040704848C9
:102FE00048EC00000000200000602020207000005D
:102FF0000000100000301010101010E00000C04061
:10300000405C507048EC00000000E02020202020B0
:1030100020F800000000000000F0A8A8A8A8000008
:103020000000000000F0484848EC000000000000EC
:1030300000304848483000000000000000F04848D8
:10304000487040E000000000003848484838081C3C
:103050000000000000D8604040E0000000000000D8
:103060000078403008780000000000202070202008
:10307000201800000000000000D84848483C00002C
:103080000000000000EC485030200000000000006C
:1030900000A8A870505000000000000000D8502088
:1030A00050D800000000000000EC4850302020C044
:1030B0000000000000781020207800000018101098
:1030C00010201010101018001010101010101010F8
:1030D0001010101000602020201020202020600000
:1030E000782C0008060C20000831000800000020A1
:1030F000600000002801000868310008600000201E
:10310000C80600004401000800A24A0400000000B4
:103110000000000001020304060708090100000086
:10312000000000000000010000000000000000009E
:103130000000000000000000860000000000000009
:10314000000000000000000000000000000000007F
:1031500000000000F401F401004400400000000001
:08316000000000000000000067
:04000005080000ED02
:00000001FF
