:10000000020788020814BB010689828A83E0225015
:1000100002E722BBFE02E32289828A83E49322BBA9
:10002000010CE58229F582E5833AF583E02250064A
:10003000E92582F8E622BBFE06E92582F8E222E500
:100040008229F582E5833AF583E49322BB010FF818
:10005000E58229F582E5833AF583E028F02250090C
:10006000C58229F8E58226F622BBFE09C58229F859
:10007000E22582F222F8EA2583F583E9932822BB60
:10008000010689828A83F0225002F722BBFE01F327
:1000900022F8BB010DE58229F582E5833AF583E874
:1000A000F0225006E92582C8F622BBFE05E925822A
:1000B000C8F222EF8DF0A4A8F0CF8CF0A428CE8D4A
:1000C000F0A42EFE22C2D5EC30E709B2D5E4C39DE0
:1000D000FDE49CFCEE30E715B2D5E4C39FFFE49E3F
:1000E000FE1201E8C3E49DFDE49CFC80031201E8DC
:1000F00030D507C3E49FFFE49EFE22BB010A89823C
:100100008A83E0F5F0A3E022500687F009E7192280
:10011000BBFE07E3F5F009E3192289828A83E493A1
:10012000F5F074019322BB0110E58229F582E58385
:100130003AF583E0F5F0A3E0225009E92582F8863C
:10014000F008E622BBFE0AE92582F8E2F5F008E2B3
:1001500022E5832AF583E993F5F0A3E99322F8BB1E
:100160000111E58229F582E5833AF583E8F0E5F0AF
:10017000A3F0225009E92582C8F608A6F022BBFEAA
:1001800009E92582C8F2E5F008F222BB010DE582FB
:1001900029F582E5833AF5830202465007E9258274
:1001A000F802023DBBFE07E92582F802024FE58214
:1001B00029F582E5833AF583020258D083D082F88C
:1001C000E4937012740193700DA3A393F8740193D8
:1001D000F5828883E473740293B5F0067403936820
:1001E00060E9A3A3A3A380D8BC000BBE0029EF8DB8
:1001F000F084FFADF022E4CCF875F008EF2FFFEEAD
:1002000033FEEC33FCEE9DEC984005FCEE9DFE0FBA
:10021000D5F0E9E4CEFD22EDF8F5F0EE8420D21C15
:10022000FEADF075F008EF2FFFED33FD400798505D
:1002300006D5F0F222C398FD0FD5F0EA22E6FB08BE
:10024000E6FA08E6F922E0FBA3E0FAA3E0F922E2ED
:10025000FB08E2FA08E2F922E493FB740193FA74D2
:100260000293F922C297D292C2937F1E7E00120A95
:100270003DD2937F1E7E00120A3DC292C2027F11C0
:10028000120A747F787E00120A3DC2027FB1120A00
:1002900074D2027F05120A74120A70120A70C20226
:1002A0007FB2120A74D2027F05120A74120A701207
:1002B0000A70C2027FB3120A74D2027F05120A7456
:1002C000120A70120A70D2027F05120A74120A70A2
:1002D000120A70C2027FB4120A74D2027F03120A99
:1002E00074C2027FC0120A74D2027F28120A74D22A
:1002F000027F08120A74D2027F04120A74C2027FBB
:10030000C1120A74D2027FC0120A74C2027FC212E2
:100310000A74D2027F0D120A74D202E4FF120A7428
:10032000C2027FC3120A74D2027F8D120A74D202F3
:100330007F2A120A74C2027FC4120A74D2027F8D0D
:10034000120A74D2027FEE120A74C2027FC5120A28
:1003500074D2027F1A120A74C2027F36120A74D251
:10036000027FC0120A74C2027FE0120A74D2027FB6
:1003700004120A74D2027F22120A74D2027F071278
:100380000A74D2027F0A120A74D2027F2E120A74F1
:10039000D2027F30120A74D2027F25120A74D2026E
:1003A0007F2A120A74D2027F28120A74D2027F2690
:1003B000120A74D2027F2E120A74D2027F3A120AF3
:1003C00074D202E4FF120A74D2027F01120A74D2BC
:1003D000027F03120A74D2027F13120A74C2027FD0
:1003E000E1120A74D2027F04120A74D2027F16123A
:1003F0000A74D2027F06120A74D2027F0D120A74A6
:10040000D2027F2D120A74D2027F26120A74D202FF
:100410007F23120A74D2027F27120A74D2027F2726
:10042000120A74D2027F25120A74D2027F2D120A98
:1004300074D2027F3B120A74D202E4FF120A74D211
:10044000027F01120A74D2027F04120A74D2027F60
:1004500013120A74C2027F3A120A74D2027F051282
:100460000A74C2027F29020A74AB14AA15A9169055
:10047000000C12018B1200FB2513FFE5F03512FA78
:10048000A9077BFF8B388A39893AAB14AA15A916BC
:1004900090000C12018B90000212001FFFAB14AAF7
:1004A00015A91690000612001F8FF0A4FF12000677
:1004B0002FF54090000C12018B90000312001FFFDB
:1004C000AB14AA15A91690000712001F8FF0A4FF05
:1004D00090000112001F2FF541AF407E00FD7C000F
:1004E00090000C12018B90000212001FFBE5402BC4
:1004F000FBE433CB24FFCB34FFFAC002C003AB14C0
:10050000AA15A91690000C12018B90000312001F6F
:10051000FBE5412BFBE433CB24FFF549EB34FFF53E
:1005200048D003D002120879E4F53BAB14AA15A910
:100530001690000C12018B90000312001FFFE53B88
:10054000C39F506CAB38AA39A93A853B82758300AA
:1005500012001FF53FE4F53CAB14AA15A916900054
:100560000C12018B90000212001FFFE53CC39F504C
:100570003A74807E00A83C088006CEA2E713CE1312
:10058000D8F8FFEF553FAB14AA15A91660059000E7
:1005900008800390000A120126F53E85F03DD20244
:1005A000AF3EAE3D120A5D053C80AD053B02052B1A
:1005B000AB14AA15A91690000412001F14FF900096
:1005C0000612001FB5070C900006E412009190007F
:1005D000078009AB14AA15A9169000067401120031
:1005E0004CAB14AA15A91690000512001FFF90002D
:1005F0000712001FB50707900007E4120091228F31
:1006000036E536640A7060AB14AA15A91690000589
:1006100012001F14FF90000712001F6F702E900031
:1006200007120091900008120126F4FFE5F0F49003
:1006300000088FF012015E90000A120126F4FFE517
:10064000F0F490000A8FF012015E800EAB14AA1530
:10065000A916900007740112004CAB14AA15A91634
:10066000900006E4020091D3E536648094FF5003C5
:100670000206F3E5134512707AAF36EF3395E0F5D5
:10068000128F13E513751300F512AB14AA15A916F2
:1006900090000412001F24FEFF90000612001F6F3E
:1006A0006003020787900006120091900005120077
:1006B0001F14FF90000712001F6FAB14AA15A91694
:1006C0009000077029120091900008120126F4FF93
:1006D000E5F0F49000088FF012015E90000A12011C
:1006E00026F4FFE5F0F490000A8FF002015E740139
:1006F00002004CE51345126054AF36EF3395E0FE2F
:10070000EF4213EE4212AF13AE1212099A8E128FFD
:1007100013AB14AA15A91690000C12018B900003BC
:1007200012001FFD7C001200B38E128F1312046999
:10073000AB14AA15A91690000C12018B900003129D
:10074000001F2513F513E43512F5128032AB14AAFD
:1007500015A91690000C12018B90000412001FFFC7
:10076000AD36ED3395E0FCC3ED9FFFEC9400FE90B9
:10077000000312001FFD7C001200B38E128F1312B3
:100780000469E4F512F51322787FE4F6D8FD75814B
:10079000700207CF020908E493A3F8E493A340038F
:1007A000F68001F208DFF48029E493A3F8540724CB
:1007B0000CC8C333C4540F4420C8834004F456808B
:1007C0000146F6DFE4800B0102040810204080900F
:1007D0000A1DE47E019360BCA3FF543F30E5095439
:1007E0001FFEE493A360010ECF54C025E060A84033
:1007F000B8E493A3FAE493A3F8E493A3C8C582C82A
:10080000CAC583CAF0A3C8C582C8CAC583CADFE9FE
:10081000DEE780BEC0E0C083C082C0D075D000C01B
:1008200001C002C003E54C14600804703585804C9B
:100830008030AB4EAA4FA950E58012007FAB4EAA84
:100840004FA950120006700FF54E754F00755051AC
:10085000754D01F54C800B74012550F550E4354F72
:10086000F54FD003D002D001D0D0D082D083D0E0D9
:1008700032AD00AC00AF00AE008E428F438C448D91
:10088000458A468B47C2027F2A120A74D202AF43BE
:10089000AE42120A5DD202AF47AE46120A5DC202F4
:1008A0007F2B120A74D202AF45AE44120A5DD20207
:1008B000AF49AE48120A5DC2027F2C020A748B3324
:1008C0008A34893590000C12018B90000212001FAF
:1008D000FFAB33AA34A93590000212001F8FF084B9
:1008E00090000412009190000C12018B90000312F2
:1008F000001FFFAB33AA34A93590000312001F8FED
:10090000F084900005020091120264120A7B120921
:1009100052E4F52BF52C752DFF752E0E752FF47402
:10092000FFF529F52AE4F521F5227523807524A029
:10093000FB7A0079211208BE7B007A007921120A25
:1009400085E54D60FCE4F54DFB7A0079511209D53F
:1009500080EF75480075499F7B7F7A00E4FDFCFFBE
:10096000FE120879E4F533F534E4F535F536D202B4
:10097000AF09AE08120A5D0536E53670020535C3CB
:100980009480E535940040E60534E5347002053383
:10099000C394A0E533940040D022EF8EF01201BB47
:1009A00009C7B6FE09CCB9B709BDCAC709C2CDF59A
:1009B00009B8CED2000009D17E007F62227E007F7E
:1009C00064227E007F66227E007F68227E007F6A2E
:1009D00022E4FEFF228B338A348935AB33AA34A953
:1009E0003512000660130535E5357002053414F93B
:1009F000120006FF1205FF80E22278177608D296D1
:100A0000C2927817E6166014C296EF30E704D295CA
:100A10008002C295EF25E0FFD29680E6220208FF11
:100A2000E0020A0000020E0000C100C10102120033
:100A300000034E000051014D00014C0000EF1FAAC1
:100A40000670011E4A600F7D02EDD3940040EE7CDB
:100A5000E3DCFE1D80F322D202AF11AE108E4A8F6E
:100A60004BA2029294E54AFF1209FAAF4B0209FA2F
:100A7000D2027F3CA20292940209FAD288D2A8D272
:100A8000AF7580FF228B148A1589162200000000A2
:100A90000000000000000000000020202020202096
:100AA000002000000028505000000000000000005E
:100AB00000002828FC2850FC50500000002078A896
:100AC000A0603028A8F02000000048A8B0502834CA
:100AD00054480000000020505078A8A8906C0000F6
:100AE00000404080000000000000000000040810EA
:100AF00010101010100804000040201010101010EA
:100B00001020400000000020A87070A82000000005
:100B10000000202020F8202020000000000000001D
:100B200000000000004040800000000000F80000CD
:100B30000000000000000000000000000040000075
:100B400000081010102020404040800000007088F5
:100B5000888888888870000000002060202020207D
:100B600020700000000070888810204080F800008D
:100B700000007088083008088870000000001030FD
:100B800050509078101800000000F88080F008089D
:100B9000887000000000709080F0888888700000E5
:100BA0000000F89010202020202000000000708815
:100BB00088708888887000000000708888887808AD
:100BC000487000000000000020000000002000002D
:100BD0000000000000200000002020000004081099
:100BE000204020100804000000000000F80000F879
:100BF0000000000000402010080408102040000001
:100C000000007088881020200020000000007088FC
:100C100098A8A8B8807800000000202030505078B4
:100C200048CC00000000F0484870484848F00000F8
:100C30000000788880808080887000000000F04884
:100C40004848484848F000000000F84850705040BC
:100C500048F800000000F8485070504040E00000A4
:100C60000000384880809C88483000000000CC4854
:100C70004878484848CC00000000F8202020202078
:100C800020F8000000007C10101010101090E00000
:100C90000000EC485060505048EC00000000E0407C
:100CA0004040404044FC00000000D8D8D8D8A8A854
:100CB000A8A800000000DC486868585848E8000010
:100CC0000000708888888888887000000000F048DC
:100CD0004870404040E0000000007088888888E844
:100CE000987018000000F0484870504848EC000028
:100CF000000078888060100888F000000000F8A8E4
:100D000020202020207000000000CC48484848489F
:100D1000483000000000CC484850503020200000EF
:100D20000000A8A8A8705050505000000000D850F3
:100D30005020205050D800000000D85050202020D3
:100D4000207000000000F8901020204048F80000BB
:100D50000038202020202020202038000040404063
:100D6000202010101008000000701010101010103B
:100D70001010700000205000000000000000000073
:100D80000000000000000000000000FC0020000047
:100D900000000000000000000000000000304838A3
:100DA000483C00000000C0404070484848700000C7
:100DB00000000000003848404038000000001808DB
:100DC00008384848483C00000000000000304878DF
:100DD0004038000000001C202078202020780000EF
:100DE00000000000003C4830407844380000C0401B
:100DF0004070484848EC00000000200000602020BF
:100E0000207000000000100000301010101010E0E2
:100E10000000C040405C507048EC00000000E02042
:100E20002020202020F800000000000000F0A8A8EA
:100E3000A8A800000000000000F0484848EC0000AE
:100E4000000000000030484848300000000000006A
:100E500000F04848487040E0000000000038484872
:100E60004838081C0000000000D8604040E0000046
:100E700000000000007840300878000000000020EA
:100E800020702020201800000000000000D84848F2
:100E9000483C00000000000000EC485030200000FA
:100EA0000000000000A8A8705050000000000000E2
:100EB00000D8502050D800000000000000EC48503E
:100EC000302020C0000000000078102020780000B2
:100ED0000018101010201010101018001010101012
:100EE0001010101010101010006020202010202072
:090EF000202060000A8C060C2091
:00000001FF
